{
  "_format": "hh-sol-artifact-1",
  "contractName": "Battle",
  "sourceName": "contracts/Battle.sol",
  "abi": [
    {
      "inputs": [
        {
          "internalType": "address",
          "name": "_pokemonContract",
          "type": "address"
        }
      ],
      "stateMutability": "nonpayable",
      "type": "constructor"
    },
    {
      "anonymous": false,
      "inputs": [
        {
          "indexed": true,
          "internalType": "address",
          "name": "winner",
          "type": "address"
        },
        {
          "indexed": true,
          "internalType": "address",
          "name": "loser",
          "type": "address"
        },
        {
          "indexed": false,
          "internalType": "uint256",
          "name": "winnerPokemonId",
          "type": "uint256"
        },
        {
          "indexed": false,
          "internalType": "uint256",
          "name": "loserPokemonId",
          "type": "uint256"
        }
      ],
      "name": "BattleEnded",
      "type": "event"
    },
    {
      "anonymous": false,
      "inputs": [
        {
          "indexed": true,
          "internalType": "address",
          "name": "player1",
          "type": "address"
        },
        {
          "indexed": true,
          "internalType": "address",
          "name": "player2",
          "type": "address"
        },
        {
          "indexed": false,
          "internalType": "uint256",
          "name": "pokemon1Id",
          "type": "uint256"
        },
        {
          "indexed": false,
          "internalType": "uint256",
          "name": "pokemon2Id",
          "type": "uint256"
        }
      ],
      "name": "BattleStarted",
      "type": "event"
    },
    {
      "anonymous": false,
      "inputs": [
        {
          "indexed": true,
          "internalType": "address",
          "name": "previousOwner",
          "type": "address"
        },
        {
          "indexed": true,
          "internalType": "address",
          "name": "newOwner",
          "type": "address"
        }
      ],
      "name": "OwnershipTransferred",
      "type": "event"
    },
    {
      "inputs": [],
      "name": "EXPERIENCE_PER_WIN",
      "outputs": [
        {
          "internalType": "uint256",
          "name": "",
          "type": "uint256"
        }
      ],
      "stateMutability": "view",
      "type": "function"
    },
    {
      "inputs": [],
      "name": "REST_TIME",
      "outputs": [
        {
          "internalType": "uint256",
          "name": "",
          "type": "uint256"
        }
      ],
      "stateMutability": "view",
      "type": "function"
    },
    {
      "inputs": [],
      "name": "STAMINA_COST",
      "outputs": [
        {
          "internalType": "uint256",
          "name": "",
          "type": "uint256"
        }
      ],
      "stateMutability": "view",
      "type": "function"
    },
    {
      "inputs": [
        {
          "internalType": "uint256",
          "name": "yourPokemonId",
          "type": "uint256"
        },
        {
          "internalType": "uint256",
          "name": "opponentPokemonId",
          "type": "uint256"
        }
      ],
      "name": "battle",
      "outputs": [],
      "stateMutability": "nonpayable",
      "type": "function"
    },
    {
      "inputs": [
        {
          "internalType": "uint256",
          "name": "",
          "type": "uint256"
        }
      ],
      "name": "battleHistory",
      "outputs": [
        {
          "internalType": "address",
          "name": "winner",
          "type": "address"
        },
        {
          "internalType": "address",
          "name": "loser",
          "type": "address"
        },
        {
          "internalType": "uint256",
          "name": "winnerPokemonId",
          "type": "uint256"
        },
        {
          "internalType": "uint256",
          "name": "loserPokemonId",
          "type": "uint256"
        },
        {
          "internalType": "uint256",
          "name": "timestamp",
          "type": "uint256"
        }
      ],
      "stateMutability": "view",
      "type": "function"
    },
    {
      "inputs": [],
      "name": "getBattleHistory",
      "outputs": [
        {
          "components": [
            {
              "internalType": "address",
              "name": "winner",
              "type": "address"
            },
            {
              "internalType": "address",
              "name": "loser",
              "type": "address"
            },
            {
              "internalType": "uint256",
              "name": "winnerPokemonId",
              "type": "uint256"
            },
            {
              "internalType": "uint256",
              "name": "loserPokemonId",
              "type": "uint256"
            },
            {
              "internalType": "uint256",
              "name": "timestamp",
              "type": "uint256"
            }
          ],
          "internalType": "struct Battle.BattleRecord[]",
          "name": "",
          "type": "tuple[]"
        }
      ],
      "stateMutability": "view",
      "type": "function"
    },
    {
      "inputs": [
        {
          "internalType": "uint256",
          "name": "limit",
          "type": "uint256"
        }
      ],
      "name": "getTopBattlers",
      "outputs": [
        {
          "internalType": "address[]",
          "name": "",
          "type": "address[]"
        },
        {
          "internalType": "uint256[]",
          "name": "",
          "type": "uint256[]"
        }
      ],
      "stateMutability": "view",
      "type": "function"
    },
    {
      "inputs": [
        {
          "internalType": "address",
          "name": "user",
          "type": "address"
        }
      ],
      "name": "getUserStats",
      "outputs": [
        {
          "components": [
            {
              "internalType": "uint256",
              "name": "wins",
              "type": "uint256"
            },
            {
              "internalType": "uint256",
              "name": "losses",
              "type": "uint256"
            },
            {
              "internalType": "uint256",
              "name": "totalBattles",
              "type": "uint256"
            }
          ],
          "internalType": "struct Battle.UserStats",
          "name": "",
          "type": "tuple"
        }
      ],
      "stateMutability": "view",
      "type": "function"
    },
    {
      "inputs": [],
      "name": "owner",
      "outputs": [
        {
          "internalType": "address",
          "name": "",
          "type": "address"
        }
      ],
      "stateMutability": "view",
      "type": "function"
    },
    {
      "inputs": [],
      "name": "pokemonContract",
      "outputs": [
        {
          "internalType": "contract Pokemon",
          "name": "",
          "type": "address"
        }
      ],
      "stateMutability": "view",
      "type": "function"
    },
    {
      "inputs": [],
      "name": "renounceOwnership",
      "outputs": [],
      "stateMutability": "nonpayable",
      "type": "function"
    },
    {
      "inputs": [
        {
          "internalType": "address",
          "name": "newOwner",
          "type": "address"
        }
      ],
      "name": "transferOwnership",
      "outputs": [],
      "stateMutability": "nonpayable",
      "type": "function"
    },
    {
      "inputs": [
        {
          "internalType": "address",
          "name": "",
          "type": "address"
        }
      ],
      "name": "userStats",
      "outputs": [
        {
          "internalType": "uint256",
          "name": "wins",
          "type": "uint256"
        },
        {
          "internalType": "uint256",
          "name": "losses",
          "type": "uint256"
        },
        {
          "internalType": "uint256",
          "name": "totalBattles",
          "type": "uint256"
        }
      ],
      "stateMutability": "view",
      "type": "function"
    }
  ],
  "bytecode": "0x6080346100a757601f61101638819003918201601f19168301916001600160401b038311848410176100ac578084926020946040528339810103126100a757516001600160a01b0390818116908190036100a75760005460018060a01b0319903382821617600055604051933391167f8be0079c531659141344cd1fd0a4f28419497f9722a3daafe3b4186f6b6457e0600080a36001541617600155610f5390816100c38239f35b600080fd5b634e487b7160e01b600052604160045260246000fdfe60c060408181526004908136101561001657600080fd5b600092833560e01c9081632a0c5221146106e7575080632b6b7c3c146106cb57806333f5f6301461059a5780633b7a32531461057d5780634ccc616d146105165780634e43603a146104905780634ff4af79146104745780636d50905f1461044b578063715018a6146103ee5780638a65d8741461039e5780638da5cb5b14610376578063ef89bc7c1461017f5763f2fde38b146100b357600080fd5b3461017b57602036600319011261017b576001600160a01b03823581811693919290849003610177576100e4610cf8565b831561012557505082546001600160a01b0319811683178455167f8be0079c531659141344cd1fd0a4f28419497f9722a3daafe3b4186f6b6457e08380a380f35b906020608492519162461bcd60e51b8352820152602660248201527f4f776e61626c653a206e6577206f776e657220697320746865207a65726f206160448201526564647265737360d01b6064820152fd5b8480fd5b8280fd5b50919034610372576020908160031936011261017b573592916101b56101a485610ef1565b8451608060a0528060a05152610d9e565b8360a05151526101c484610ef1565b60a05151601f19939081019184013683376101de86610ef1565b956101eb86519788610d9e565b8087526101f781610ef1565b8783019501368637600354845b82811061028a57505050845195858796870190875260a0515151809152606087019390855b81811061026a57505050858303868301525180835291810193925b82811061025357505050500390f35b835185528695509381019392810192600101610244565b82516001600160a01b031686528998509484019491840191600101610229565b8594969798939585865b8481106102d857509082916102af6102cc9460a05151610f09565b6001600160a01b0390911690526102c68287610f09565b52610e85565b97969593949297610204565b8b6102e282610ca7565b50546001600160a01b03908116808b5260028c52918a20548510610311575b505061030c90610e85565b610294565b89908a5b878110610342575b50501561032b575b80610301565b80895260028a528c8920549350915061030c610325565b83826103518360a05151610f09565b5116146103665761036190610e85565b610315565b5050506001388061031d565b5080fd5b838234610372578160031936011261037257905490516001600160a01b039091168152602090f35b50903461017b57602036600319011261017b57356001600160a01b0381169081900361017b5782829160609452600260205220805491600260018301549201549181519384526020840152820152f35b8334610448578060031936011261044857610407610cf8565b80546001600160a01b03198116825581906001600160a01b03167f8be0079c531659141344cd1fd0a4f28419497f9722a3daafe3b4186f6b6457e08280a380f35b80fd5b83823461037257816003193601126103725760015490516001600160a01b039091168152602090f35b8382346103725781600319360112610372576020905160648152f35b50903461017b57602036600319011261017b57356001600160a01b0381169081900361017b578282916060948380516104c881610d82565b828152826020820152015281526002602052209080516104e781610d82565b825492838252826002600183015492602085019384520154920191825282519384525160208401525190820152f35b503461017b57602036600319011261017b57813592600354841015610448575061054160a093610ca7565b50600180851b03928382541693600183015416926002830154916003840154930154938151958652602086015284015260608301526080820152f35b83823461037257816003193601126103725760209051610e108152f35b5091903461037257816003193601126103725760039182546105bb81610ef1565b906105c886519283610d9e565b8082526020948583019081958186527fc2575a0e9e593c00f959f8c92f12db2869c3395a3b0502d05e2516446f71f85b9186935b85851061067257505050505050845193808501918186525180925285850193925b82811061062a5785850386f35b835180516001600160a01b0390811687528184015116868401528781015188870152606080820151908701526080908101519086015260a0909401939281019260010161061d565b60058a6001928d809d9a9b9d519061068982610d50565b858060a01b03808a54168352868a01541684830152600289015490820152858801546060820152868801546080820152815201940194019392989695986105fc565b8382346103725781600319360112610372576020905160148152f35b849150833461017b578360031936011261017b57600154632f7467b360e01b8352602480358484018190528335966001600160a01b039590939192909160209190871682848381845afa938415610c9d578994610c7e575b50878416803314610c3c5786516331a9108f60e11b8082528982018d90529085818681875afa908115610b27578c91610c1f575b508a33911603610bdd578751908152868982015284818581865afa908115610bd35782918b918d91610ba6575b501603610b5a5786519063f0b305db60e01b8083528c8a8401526101609384848781845afa938415610b5057868a938f938e93899598610b31575b508d51958694859384528301525afa938415610b27578c94610af8575b505061014080830151610ab657830151610a745761010060148184015110610a2157601490840151106109c85761086891610862918d8a5190815289888201527f8853ac66059f85b9c999cea0edccd77084e1bc2fb8f01d57a41ca9528362e9d98b3392a3610eb7565b91610eb7565b10156109be578633939994935b16958689528760029a8b8552878b2061088e8154610e85565b90551697888a528a84526001878b20016108a88154610e85565b9055878a528a84528a878b20016108bf8154610e85565b9055888a528a84528a878b20016108d68154610e85565b90558651809b6108e582610d50565b8982528582018b815289830190898252608060608501948a86520194428652600354680100000000000000008110156109ab578060016109289201600355610ca7565b98909861099b57507f405b87e11b432206064b961ea8ed6c8e8744eb4b57852436f108ce8a6f8e9ab69c9d9e9f81905116906bffffffffffffffffffffffff60a01b91828a541617895560018901925116908254161790555190850155516003840155519101558351928352820152a380f35b8f8089634e487b7160e01b825252fd5b50634e487b7160e01b8f5260418752878ffd5b3398928790610875565b875162461bcd60e51b8152808a01869052602e818601527f4f70706f6e656e74277320506f6b656d6f6e20646f65736e277420686176652060448201526d656e6f756768207374616d696e6160901b6064820152608490fd5b885162461bcd60e51b8152808b018790526028818701527f596f757220506f6b656d6f6e20646f65736e2774206861766520656e6f756768604482015267207374616d696e6160c01b6064820152608490fd5b875162461bcd60e51b8152808a01869052601d818601527f4f70706f6e656e74277320506f6b656d6f6e2069732072657374696e670000006044820152606490fd5b885162461bcd60e51b8152808b018790526017818701527f596f757220506f6b656d6f6e2069732072657374696e670000000000000000006044820152606490fd5b610b18929450803d10610b20575b610b108183610d9e565b810190610de4565b918c806107f8565b503d610b06565b89513d8e823e3d90fd5b610b49919850853d8711610b2057610b108183610d9e565b96386107db565b8a513d8f823e3d90fd5b865162461bcd60e51b81528089018590526021818501527f4f70706f6e656e7420646f65736e2774206f776e207468697320506f6b656d6f6044820152603760f91b6064820152608490fd5b610bc69150873d8911610bcc575b610bbe8183610d9e565b810190610dc0565b8e6107a0565b503d610bb4565b88513d8d823e3d90fd5b875162461bcd60e51b8152808a01869052601a818601527f596f7520646f6e2774206f776e207468697320506f6b656d6f6e0000000000006044820152606490fd5b610c369150863d8811610bcc57610bbe8183610d9e565b8d610773565b865162461bcd60e51b8152808901859052601e818501527f43616e6e6f7420626174746c6520796f7572206f776e20506f6b656d6f6e00006044820152606490fd5b610c96919450833d8511610bcc57610bbe8183610d9e565b928a61073f565b86513d8b823e3d90fd5b600354811015610ce2576005906003600052027fc2575a0e9e593c00f959f8c92f12db2869c3395a3b0502d05e2516446f71f85b0190600090565b634e487b7160e01b600052603260045260246000fd5b6000546001600160a01b03163303610d0c57565b606460405162461bcd60e51b815260206004820152602060248201527f4f776e61626c653a2063616c6c6572206973206e6f7420746865206f776e65726044820152fd5b60a0810190811067ffffffffffffffff821117610d6c57604052565b634e487b7160e01b600052604160045260246000fd5b6060810190811067ffffffffffffffff821117610d6c57604052565b90601f8019910116810190811067ffffffffffffffff821117610d6c57604052565b90816020910312610ddf57516001600160a01b0381168103610ddf5790565b600080fd5b80916101609283910312610ddf5760405191820182811067ffffffffffffffff821117610d6c57604052805182526020810151602083015260408101516040830152606081015160608301526080810151608083015260a081015160a083015260c081015160c083015260e081015160e08301526101008082015190830152610120808201519083015261014080910151908115158203610ddf5782015290565b6000198114610e945760010190565b634e487b7160e01b600052601160045260246000fd5b91908201809211610e9457565b6020610eda610ecf60a084015160c085015190610eaa565b60e084015190610eaa565b91015190818102918183041490151715610e945790565b67ffffffffffffffff8111610d6c5760051b60200190565b8051821015610ce25760209160051b01019056fea2646970667358221220e562ab68d4f022f1e0d531d9b059a61e35e731e529c627b5ae1b28932e187f5064736f6c63430008130033",
  "linkReferences": {},
  "deployedLinkReferences": {}
}