{
  "_format": "hh-sol-artifact-1",
  "contractName": "Marketplace",
  "sourceName": "contracts/Marketplace.sol",
  "abi": [
    {
      "inputs": [
        {
          "internalType": "address",
          "name": "_pokemonContract",
          "type": "address"
        },
        {
          "internalType": "address",
          "name": "_tokenContract",
          "type": "address"
        }
      ],
      "stateMutability": "nonpayable",
      "type": "constructor"
    },
    {
      "anonymous": false,
      "inputs": [
        {
          "indexed": true,
          "internalType": "address",
          "name": "previousOwner",
          "type": "address"
        },
        {
          "indexed": true,
          "internalType": "address",
          "name": "newOwner",
          "type": "address"
        }
      ],
      "name": "OwnershipTransferred",
      "type": "event"
    },
    {
      "anonymous": false,
      "inputs": [
        {
          "indexed": true,
          "internalType": "uint256",
          "name": "listingId",
          "type": "uint256"
        },
        {
          "indexed": true,
          "internalType": "address",
          "name": "seller",
          "type": "address"
        },
        {
          "indexed": false,
          "internalType": "uint256",
          "name": "tokenId",
          "type": "uint256"
        },
        {
          "indexed": false,
          "internalType": "uint256",
          "name": "price",
          "type": "uint256"
        }
      ],
      "name": "PokemonListed",
      "type": "event"
    },
    {
      "anonymous": false,
      "inputs": [
        {
          "indexed": true,
          "internalType": "uint256",
          "name": "listingId",
          "type": "uint256"
        },
        {
          "indexed": true,
          "internalType": "address",
          "name": "buyer",
          "type": "address"
        },
        {
          "indexed": true,
          "internalType": "address",
          "name": "seller",
          "type": "address"
        },
        {
          "indexed": false,
          "internalType": "uint256",
          "name": "tokenId",
          "type": "uint256"
        },
        {
          "indexed": false,
          "internalType": "uint256",
          "name": "price",
          "type": "uint256"
        }
      ],
      "name": "PokemonPurchased",
      "type": "event"
    },
    {
      "anonymous": false,
      "inputs": [
        {
          "indexed": true,
          "internalType": "uint256",
          "name": "listingId",
          "type": "uint256"
        }
      ],
      "name": "PokemonUnlisted",
      "type": "event"
    },
    {
      "inputs": [],
      "name": "getActiveListings",
      "outputs": [
        {
          "components": [
            {
              "internalType": "address",
              "name": "seller",
              "type": "address"
            },
            {
              "internalType": "uint256",
              "name": "tokenId",
              "type": "uint256"
            },
            {
              "internalType": "uint256",
              "name": "price",
              "type": "uint256"
            },
            {
              "internalType": "bool",
              "name": "isActive",
              "type": "bool"
            }
          ],
          "internalType": "struct Marketplace.Listing[]",
          "name": "",
          "type": "tuple[]"
        }
      ],
      "stateMutability": "view",
      "type": "function"
    },
    {
      "inputs": [
        {
          "internalType": "uint256",
          "name": "tokenId",
          "type": "uint256"
        },
        {
          "internalType": "uint256",
          "name": "price",
          "type": "uint256"
        }
      ],
      "name": "listPokemon",
      "outputs": [],
      "stateMutability": "nonpayable",
      "type": "function"
    },
    {
      "inputs": [],
      "name": "listingCount",
      "outputs": [
        {
          "internalType": "uint256",
          "name": "",
          "type": "uint256"
        }
      ],
      "stateMutability": "view",
      "type": "function"
    },
    {
      "inputs": [
        {
          "internalType": "uint256",
          "name": "",
          "type": "uint256"
        }
      ],
      "name": "listings",
      "outputs": [
        {
          "internalType": "address",
          "name": "seller",
          "type": "address"
        },
        {
          "internalType": "uint256",
          "name": "tokenId",
          "type": "uint256"
        },
        {
          "internalType": "uint256",
          "name": "price",
          "type": "uint256"
        },
        {
          "internalType": "bool",
          "name": "isActive",
          "type": "bool"
        }
      ],
      "stateMutability": "view",
      "type": "function"
    },
    {
      "inputs": [],
      "name": "owner",
      "outputs": [
        {
          "internalType": "address",
          "name": "",
          "type": "address"
        }
      ],
      "stateMutability": "view",
      "type": "function"
    },
    {
      "inputs": [],
      "name": "pokemonContract",
      "outputs": [
        {
          "internalType": "contract Pokemon",
          "name": "",
          "type": "address"
        }
      ],
      "stateMutability": "view",
      "type": "function"
    },
    {
      "inputs": [
        {
          "internalType": "uint256",
          "name": "listingId",
          "type": "uint256"
        }
      ],
      "name": "purchasePokemon",
      "outputs": [],
      "stateMutability": "nonpayable",
      "type": "function"
    },
    {
      "inputs": [],
      "name": "renounceOwnership",
      "outputs": [],
      "stateMutability": "nonpayable",
      "type": "function"
    },
    {
      "inputs": [],
      "name": "tokenContract",
      "outputs": [
        {
          "internalType": "contract Token",
          "name": "",
          "type": "address"
        }
      ],
      "stateMutability": "view",
      "type": "function"
    },
    {
      "inputs": [
        {
          "internalType": "address",
          "name": "newOwner",
          "type": "address"
        }
      ],
      "name": "transferOwnership",
      "outputs": [],
      "stateMutability": "nonpayable",
      "type": "function"
    },
    {
      "inputs": [
        {
          "internalType": "uint256",
          "name": "listingId",
          "type": "uint256"
        }
      ],
      "name": "unlistPokemon",
      "outputs": [],
      "stateMutability": "nonpayable",
      "type": "function"
    }
  ],
  "bytecode": "0x6080346100c357601f610d1038819003918201601f19168301916001600160401b038311848410176100c85780849260409485528339810103126100c357610052602061004b836100de565b92016100de565b60008054336001600160a01b0319808316821784556040519590946001600160a01b03949093859391908416907f8be0079c531659141344cd1fd0a4f28419497f9722a3daafe3b4186f6b6457e09080a31683600154161760015516906002541617600255610c1d90816100f38239f35b600080fd5b634e487b7160e01b600052604160045260246000fd5b51906001600160a01b03821682036100c35756fe608060408181526004908136101561001657600080fd5b600092833560e01c9081632d7e10bc146108295750806355a373d6146108005780636d50905f146107d7578063715018a61461077a5780637c2dbcdb1461065c57806387c35bc0146104a45780638da5cb5b14610478578063a9b07c261461045a578063c15f618a146101ca578063de74e57b146101735763f2fde38b1461009d57600080fd5b3461016f57602036600319011261016f576001600160a01b0382358181169391929084900361016b576100ce610a7c565b8315610119575050600054826bffffffffffffffffffffffff60a01b821617600055167f8be0079c531659141344cd1fd0a4f28419497f9722a3daafe3b4186f6b6457e0600080a380f35b906020608492519162461bcd60e51b8352820152602660248201527f4f776e61626c653a206e6577206f776e657220697320746865207a65726f206160448201526564647265737360d01b6064820152fd5b8480fd5b8280fd5b50903461016f57602036600319011261016f5760809282913581526003602052209060018060a01b038254169160018101549160ff6003600284015493015416928151948552602085015283015215156060820152f35b50903461016f5760209182600319360112610356578135845260038352808420906101fb60ff600384015416610b61565b81546001600160a01b039081169490919033861461041957826002541682516370a0823160e01b815233878201528281602481855afa90811561040f5789916103de575b50600286015480911061039b5783516323b872dd60e01b80825233828a019081526001600160a01b03909a1660208b015260408a019290925290979091839183919082908c90829060600103925af180156103915761035a575b5086836001541660018601978854823b1561035657855191825230828a0190815233602082015260408101919091529091839183919082908490829060600103925af1801561034c57610334575b505060027f4647de282052d6650703aa682b6b5b208487c77d74ac76657eec9b6c0189e8b69360ff196003870154166003870155855416965494015490825194855284015233933592a480f35b61033d90610ad4565b6103485786386102e7565b8680fd5b84513d84823e3d90fd5b8380fd5b8181813d831161038a575b61036f8183610b1a565b810103126103865751801515036103485738610299565b8780fd5b503d610365565b83513d8a823e3d90fd5b835162461bcd60e51b8152808801849052601a60248201527f496e73756666696369656e7420746f6b656e2062616c616e63650000000000006044820152606490fd5b90508281813d8311610408575b6103f58183610b1a565b8101031261040457513861023f565b8880fd5b503d6103eb565b84513d8b823e3d90fd5b808591606493519262461bcd60e51b845283015260248201527f43616e6e6f7420707572636861736520796f7572206f776e20506f6b656d6f6e6044820152fd5b50903461016f578260031936011261016f5760209250549051908152f35b8382346104a057816003193601126104a057905490516001600160a01b039091168152602090f35b5080fd5b509190346104a057816003193601126104a05754819060015b8181111561062357506104cf82610ba5565b916104dc85519384610b1a565b8083526104eb601f1991610ba5565b01835b8181106105f65750508260015b82811115610569575050508251916020808401908085528351809252808686019401925b82811061052c5785850386f35b835180516001600160a01b03168652808301518684015287810151888701526060908101511515908601526080909401939281019260010161051f565b808552600360209080825260ff88882091820154169081610596575b50505061059190610b3c565b6104fb565b9161059193949160026105ed948b51936105af85610afe565b81546001600160a01b0316855260018201549085015201548a830152151560608201526105dc8288610bbd565b526105e78187610bbd565b50610b3c565b91903880610585565b602090865161060481610afe565b86815282878183015287898301528760608301528287010152016104ee565b80845260ff600380602052868620015416610647575b61064290610b3c565b6104bd565b9161065461064291610b3c565b929050610639565b50903461016f57602036600319011261016f57803591828452600360205280842090600382019261069060ff855416610b61565b82546001600160a01b0390811633036107465790600187949392815416930154833b1561016b5782516323b872dd60e01b815230928101928352336020840152604083019190915292849184919082908490829060600103925af190811561073d5750610729575b5050805460ff191690557f0606aa4ea8d6c076bc23b99c6c75828457a5e380ffc0f8442e4cc202f50d76b98280a280f35b61073290610ad4565b61016f5782386106f8565b513d84823e3d90fd5b506020606492519162461bcd60e51b8352820152600e60248201526d2737ba103a34329039b2b63632b960911b6044820152fd5b83346107d457806003193601126107d457610793610a7c565b600080546001600160a01b0319811682556001600160a01b03167f8be0079c531659141344cd1fd0a4f28419497f9722a3daafe3b4186f6b6457e08280a380f35b80fd5b8382346104a057816003193601126104a05760015490516001600160a01b039091168152602090f35b8382346104a057816003193601126104a05760025490516001600160a01b039091168152602090f35b849291503461016f578160031936011261016f5783359160243560018060a01b039586600154166331a9108f60e11b855285828601526020948581602481855afa908115610a72578891610a3c575b5088339116036109f95782156109b657803b156103485783516323b872dd60e01b815233838201908152306020820152604081018890529091889183919082908490829060600103925af180156109ac57610977575b507f3fce64c9611a0f8c290207161363f3ce43d1b2e952526baf779057e9a47938819394959660036109008354610b3c565b9182845585519061091082610afe565b3382528882018a8152878301918783526060840195600187528d52848b52888d209351166bffffffffffffffffffffffff60a01b845416178355516001830155516002820155019051151560ff80198354169116179055549382519586528501523393a380f35b956109a47f3fce64c9611a0f8c290207161363f3ce43d1b2e952526baf779057e9a4793881959697610ad4565b9594936108ce565b84513d89823e3d90fd5b835162461bcd60e51b8152808301869052601c60248201527f5072696365206d7573742062652067726561746572207468616e2030000000006044820152606490fd5b835162461bcd60e51b8152808301869052601d60248201527f4e6f7420746865206f776e6572206f66207468697320506f6b656d6f6e0000006044820152606490fd5b90508581813d8311610a6b575b610a538183610b1a565b81010312610386575188811681036103865789610878565b503d610a49565b85513d8a823e3d90fd5b6000546001600160a01b03163303610a9057565b606460405162461bcd60e51b815260206004820152602060248201527f4f776e61626c653a2063616c6c6572206973206e6f7420746865206f776e65726044820152fd5b67ffffffffffffffff8111610ae857604052565b634e487b7160e01b600052604160045260246000fd5b6080810190811067ffffffffffffffff821117610ae857604052565b90601f8019910116810190811067ffffffffffffffff821117610ae857604052565b6000198114610b4b5760010190565b634e487b7160e01b600052601160045260246000fd5b15610b6857565b60405162461bcd60e51b81526020600482015260156024820152744c697374696e67206973206e6f742061637469766560581b6044820152606490fd5b67ffffffffffffffff8111610ae85760051b60200190565b8051821015610bd15760209160051b010190565b634e487b7160e01b600052603260045260246000fdfea26469706673582212203f08f5731d3b8681c722017558035e2883c0a6d55f233914ed9391b6596e2f6b64736f6c63430008130033",
  "linkReferences": {},
  "deployedLinkReferences": {}
}