{
  "_format": "hh-sol-artifact-1",
  "contractName": "Pokemon",
  "sourceName": "contracts/Pokemon.sol",
  "abi": [
    {
      "inputs": [],
      "stateMutability": "nonpayable",
      "type": "constructor"
    },
    {
      "anonymous": false,
      "inputs": [
        {
          "indexed": true,
          "internalType": "address",
          "name": "owner",
          "type": "address"
        },
        {
          "indexed": true,
          "internalType": "address",
          "name": "approved",
          "type": "address"
        },
        {
          "indexed": true,
          "internalType": "uint256",
          "name": "tokenId",
          "type": "uint256"
        }
      ],
      "name": "Approval",
      "type": "event"
    },
    {
      "anonymous": false,
      "inputs": [
        {
          "indexed": true,
          "internalType": "address",
          "name": "owner",
          "type": "address"
        },
        {
          "indexed": true,
          "internalType": "address",
          "name": "operator",
          "type": "address"
        },
        {
          "indexed": false,
          "internalType": "bool",
          "name": "approved",
          "type": "bool"
        }
      ],
      "name": "ApprovalForAll",
      "type": "event"
    },
    {
      "anonymous": false,
      "inputs": [
        {
          "indexed": true,
          "internalType": "address",
          "name": "previousOwner",
          "type": "address"
        },
        {
          "indexed": true,
          "internalType": "address",
          "name": "newOwner",
          "type": "address"
        }
      ],
      "name": "OwnershipTransferred",
      "type": "event"
    },
    {
      "anonymous": false,
      "inputs": [
        {
          "indexed": true,
          "internalType": "uint256",
          "name": "tokenId",
          "type": "uint256"
        },
        {
          "indexed": false,
          "internalType": "uint256",
          "name": "newPokemonId",
          "type": "uint256"
        }
      ],
      "name": "PokemonEvolved",
      "type": "event"
    },
    {
      "anonymous": false,
      "inputs": [
        {
          "indexed": true,
          "internalType": "uint256",
          "name": "tokenId",
          "type": "uint256"
        },
        {
          "indexed": false,
          "internalType": "uint256",
          "name": "level",
          "type": "uint256"
        }
      ],
      "name": "PokemonLeveledUp",
      "type": "event"
    },
    {
      "anonymous": false,
      "inputs": [
        {
          "indexed": true,
          "internalType": "address",
          "name": "owner",
          "type": "address"
        },
        {
          "indexed": false,
          "internalType": "uint256",
          "name": "tokenId",
          "type": "uint256"
        },
        {
          "indexed": false,
          "internalType": "uint256",
          "name": "pokemonId",
          "type": "uint256"
        }
      ],
      "name": "PokemonMinted",
      "type": "event"
    },
    {
      "anonymous": false,
      "inputs": [
        {
          "indexed": true,
          "internalType": "address",
          "name": "owner",
          "type": "address"
        },
        {
          "indexed": false,
          "internalType": "uint256",
          "name": "tokenId",
          "type": "uint256"
        }
      ],
      "name": "PokemonRemoved",
      "type": "event"
    },
    {
      "anonymous": false,
      "inputs": [
        {
          "indexed": true,
          "internalType": "uint256",
          "name": "tokenId",
          "type": "uint256"
        },
        {
          "indexed": false,
          "internalType": "uint256",
          "name": "experience",
          "type": "uint256"
        },
        {
          "indexed": false,
          "internalType": "uint256",
          "name": "level",
          "type": "uint256"
        }
      ],
      "name": "PokemonTrained",
      "type": "event"
    },
    {
      "anonymous": false,
      "inputs": [
        {
          "indexed": true,
          "internalType": "address",
          "name": "from",
          "type": "address"
        },
        {
          "indexed": true,
          "internalType": "address",
          "name": "to",
          "type": "address"
        },
        {
          "indexed": true,
          "internalType": "uint256",
          "name": "tokenId",
          "type": "uint256"
        }
      ],
      "name": "Transfer",
      "type": "event"
    },
    {
      "inputs": [],
      "name": "BASE_EXP_REQUIRED",
      "outputs": [
        {
          "internalType": "uint256",
          "name": "",
          "type": "uint256"
        }
      ],
      "stateMutability": "view",
      "type": "function"
    },
    {
      "inputs": [],
      "name": "EXP_MULTIPLIER",
      "outputs": [
        {
          "internalType": "uint256",
          "name": "",
          "type": "uint256"
        }
      ],
      "stateMutability": "view",
      "type": "function"
    },
    {
      "inputs": [],
      "name": "STATS_INCREASE",
      "outputs": [
        {
          "internalType": "uint256",
          "name": "",
          "type": "uint256"
        }
      ],
      "stateMutability": "view",
      "type": "function"
    },
    {
      "inputs": [],
      "name": "TRAINING_EXP_GAIN",
      "outputs": [
        {
          "internalType": "uint256",
          "name": "",
          "type": "uint256"
        }
      ],
      "stateMutability": "view",
      "type": "function"
    },
    {
      "inputs": [],
      "name": "TRAINING_STAMINA_COST",
      "outputs": [
        {
          "internalType": "uint256",
          "name": "",
          "type": "uint256"
        }
      ],
      "stateMutability": "view",
      "type": "function"
    },
    {
      "inputs": [
        {
          "internalType": "uint256",
          "name": "tokenId",
          "type": "uint256"
        },
        {
          "internalType": "uint256",
          "name": "experience",
          "type": "uint256"
        }
      ],
      "name": "addExperience",
      "outputs": [],
      "stateMutability": "nonpayable",
      "type": "function"
    },
    {
      "inputs": [
        {
          "internalType": "address",
          "name": "to",
          "type": "address"
        },
        {
          "internalType": "uint256",
          "name": "tokenId",
          "type": "uint256"
        }
      ],
      "name": "approve",
      "outputs": [],
      "stateMutability": "nonpayable",
      "type": "function"
    },
    {
      "inputs": [
        {
          "internalType": "address",
          "name": "owner",
          "type": "address"
        }
      ],
      "name": "balanceOf",
      "outputs": [
        {
          "internalType": "uint256",
          "name": "",
          "type": "uint256"
        }
      ],
      "stateMutability": "view",
      "type": "function"
    },
    {
      "inputs": [
        {
          "internalType": "uint256",
          "name": "",
          "type": "uint256"
        }
      ],
      "name": "evolutionData",
      "outputs": [
        {
          "internalType": "uint256",
          "name": "nextEvolutionId",
          "type": "uint256"
        },
        {
          "internalType": "uint256",
          "name": "evolutionLevel",
          "type": "uint256"
        }
      ],
      "stateMutability": "view",
      "type": "function"
    },
    {
      "inputs": [
        {
          "internalType": "uint256",
          "name": "",
          "type": "uint256"
        }
      ],
      "name": "evolutionLevels",
      "outputs": [
        {
          "internalType": "uint256",
          "name": "",
          "type": "uint256"
        }
      ],
      "stateMutability": "view",
      "type": "function"
    },
    {
      "inputs": [
        {
          "internalType": "uint256",
          "name": "",
          "type": "uint256"
        }
      ],
      "name": "evolutionTargets",
      "outputs": [
        {
          "internalType": "uint256",
          "name": "",
          "type": "uint256"
        }
      ],
      "stateMutability": "view",
      "type": "function"
    },
    {
      "inputs": [
        {
          "internalType": "uint256",
          "name": "tokenId",
          "type": "uint256"
        }
      ],
      "name": "getApproved",
      "outputs": [
        {
          "internalType": "address",
          "name": "",
          "type": "address"
        }
      ],
      "stateMutability": "view",
      "type": "function"
    },
    {
      "inputs": [
        {
          "internalType": "uint256",
          "name": "tokenId",
          "type": "uint256"
        }
      ],
      "name": "getPokemon",
      "outputs": [
        {
          "components": [
            {
              "internalType": "uint256",
              "name": "pokemonId",
              "type": "uint256"
            },
            {
              "internalType": "uint256",
              "name": "level",
              "type": "uint256"
            },
            {
              "internalType": "uint256",
              "name": "experience",
              "type": "uint256"
            },
            {
              "internalType": "uint256",
              "name": "hp",
              "type": "uint256"
            },
            {
              "internalType": "uint256",
              "name": "maxHp",
              "type": "uint256"
            },
            {
              "internalType": "uint256",
              "name": "attack",
              "type": "uint256"
            },
            {
              "internalType": "uint256",
              "name": "defense",
              "type": "uint256"
            },
            {
              "internalType": "uint256",
              "name": "speed",
              "type": "uint256"
            },
            {
              "internalType": "uint256",
              "name": "stamina",
              "type": "uint256"
            },
            {
              "internalType": "bool",
              "name": "isResting",
              "type": "bool"
            },
            {
              "internalType": "uint256",
              "name": "lastTrainingTime",
              "type": "uint256"
            }
          ],
          "internalType": "struct Pokemon.PokemonData",
          "name": "",
          "type": "tuple"
        }
      ],
      "stateMutability": "view",
      "type": "function"
    },
    {
      "inputs": [
        {
          "internalType": "address",
          "name": "user",
          "type": "address"
        }
      ],
      "name": "getUserPokemon",
      "outputs": [
        {
          "internalType": "uint256[]",
          "name": "",
          "type": "uint256[]"
        }
      ],
      "stateMutability": "view",
      "type": "function"
    },
    {
      "inputs": [
        {
          "internalType": "address",
          "name": "",
          "type": "address"
        }
      ],
      "name": "hasStarter",
      "outputs": [
        {
          "internalType": "bool",
          "name": "",
          "type": "bool"
        }
      ],
      "stateMutability": "view",
      "type": "function"
    },
    {
      "inputs": [
        {
          "internalType": "address",
          "name": "owner",
          "type": "address"
        },
        {
          "internalType": "address",
          "name": "operator",
          "type": "address"
        }
      ],
      "name": "isApprovedForAll",
      "outputs": [
        {
          "internalType": "bool",
          "name": "",
          "type": "bool"
        }
      ],
      "stateMutability": "view",
      "type": "function"
    },
    {
      "inputs": [
        {
          "internalType": "address",
          "name": "to",
          "type": "address"
        },
        {
          "internalType": "uint256",
          "name": "pokemonId",
          "type": "uint256"
        }
      ],
      "name": "mintPokemon",
      "outputs": [
        {
          "internalType": "uint256",
          "name": "",
          "type": "uint256"
        }
      ],
      "stateMutability": "nonpayable",
      "type": "function"
    },
    {
      "inputs": [
        {
          "internalType": "uint256",
          "name": "pokemonId",
          "type": "uint256"
        }
      ],
      "name": "mintStarterPokemon",
      "outputs": [
        {
          "internalType": "uint256",
          "name": "",
          "type": "uint256"
        }
      ],
      "stateMutability": "nonpayable",
      "type": "function"
    },
    {
      "inputs": [],
      "name": "name",
      "outputs": [
        {
          "internalType": "string",
          "name": "",
          "type": "string"
        }
      ],
      "stateMutability": "view",
      "type": "function"
    },
    {
      "inputs": [],
      "name": "owner",
      "outputs": [
        {
          "internalType": "address",
          "name": "",
          "type": "address"
        }
      ],
      "stateMutability": "view",
      "type": "function"
    },
    {
      "inputs": [
        {
          "internalType": "uint256",
          "name": "tokenId",
          "type": "uint256"
        }
      ],
      "name": "ownerOf",
      "outputs": [
        {
          "internalType": "address",
          "name": "",
          "type": "address"
        }
      ],
      "stateMutability": "view",
      "type": "function"
    },
    {
      "inputs": [
        {
          "internalType": "uint256",
          "name": "",
          "type": "uint256"
        }
      ],
      "name": "pokemonData",
      "outputs": [
        {
          "internalType": "uint256",
          "name": "pokemonId",
          "type": "uint256"
        },
        {
          "internalType": "uint256",
          "name": "level",
          "type": "uint256"
        },
        {
          "internalType": "uint256",
          "name": "experience",
          "type": "uint256"
        },
        {
          "internalType": "uint256",
          "name": "hp",
          "type": "uint256"
        },
        {
          "internalType": "uint256",
          "name": "maxHp",
          "type": "uint256"
        },
        {
          "internalType": "uint256",
          "name": "attack",
          "type": "uint256"
        },
        {
          "internalType": "uint256",
          "name": "defense",
          "type": "uint256"
        },
        {
          "internalType": "uint256",
          "name": "speed",
          "type": "uint256"
        },
        {
          "internalType": "uint256",
          "name": "stamina",
          "type": "uint256"
        },
        {
          "internalType": "bool",
          "name": "isResting",
          "type": "bool"
        },
        {
          "internalType": "uint256",
          "name": "lastTrainingTime",
          "type": "uint256"
        }
      ],
      "stateMutability": "view",
      "type": "function"
    },
    {
      "inputs": [
        {
          "internalType": "uint256",
          "name": "",
          "type": "uint256"
        }
      ],
      "name": "pokemonToOwner",
      "outputs": [
        {
          "internalType": "address",
          "name": "",
          "type": "address"
        }
      ],
      "stateMutability": "view",
      "type": "function"
    },
    {
      "inputs": [
        {
          "internalType": "uint256",
          "name": "tokenId",
          "type": "uint256"
        }
      ],
      "name": "removePokemon",
      "outputs": [],
      "stateMutability": "nonpayable",
      "type": "function"
    },
    {
      "inputs": [],
      "name": "renounceOwnership",
      "outputs": [],
      "stateMutability": "nonpayable",
      "type": "function"
    },
    {
      "inputs": [
        {
          "internalType": "uint256",
          "name": "tokenId",
          "type": "uint256"
        }
      ],
      "name": "restPokemon",
      "outputs": [],
      "stateMutability": "nonpayable",
      "type": "function"
    },
    {
      "inputs": [
        {
          "internalType": "address",
          "name": "from",
          "type": "address"
        },
        {
          "internalType": "address",
          "name": "to",
          "type": "address"
        },
        {
          "internalType": "uint256",
          "name": "tokenId",
          "type": "uint256"
        }
      ],
      "name": "safeTransferFrom",
      "outputs": [],
      "stateMutability": "nonpayable",
      "type": "function"
    },
    {
      "inputs": [
        {
          "internalType": "address",
          "name": "from",
          "type": "address"
        },
        {
          "internalType": "address",
          "name": "to",
          "type": "address"
        },
        {
          "internalType": "uint256",
          "name": "tokenId",
          "type": "uint256"
        },
        {
          "internalType": "bytes",
          "name": "data",
          "type": "bytes"
        }
      ],
      "name": "safeTransferFrom",
      "outputs": [],
      "stateMutability": "nonpayable",
      "type": "function"
    },
    {
      "inputs": [
        {
          "internalType": "address",
          "name": "operator",
          "type": "address"
        },
        {
          "internalType": "bool",
          "name": "approved",
          "type": "bool"
        }
      ],
      "name": "setApprovalForAll",
      "outputs": [],
      "stateMutability": "nonpayable",
      "type": "function"
    },
    {
      "inputs": [
        {
          "internalType": "bytes4",
          "name": "interfaceId",
          "type": "bytes4"
        }
      ],
      "name": "supportsInterface",
      "outputs": [
        {
          "internalType": "bool",
          "name": "",
          "type": "bool"
        }
      ],
      "stateMutability": "view",
      "type": "function"
    },
    {
      "inputs": [],
      "name": "symbol",
      "outputs": [
        {
          "internalType": "string",
          "name": "",
          "type": "string"
        }
      ],
      "stateMutability": "view",
      "type": "function"
    },
    {
      "inputs": [
        {
          "internalType": "uint256",
          "name": "tokenId",
          "type": "uint256"
        }
      ],
      "name": "tokenURI",
      "outputs": [
        {
          "internalType": "string",
          "name": "",
          "type": "string"
        }
      ],
      "stateMutability": "view",
      "type": "function"
    },
    {
      "inputs": [
        {
          "internalType": "uint256",
          "name": "tokenId",
          "type": "uint256"
        }
      ],
      "name": "train",
      "outputs": [],
      "stateMutability": "nonpayable",
      "type": "function"
    },
    {
      "inputs": [
        {
          "internalType": "address",
          "name": "from",
          "type": "address"
        },
        {
          "internalType": "address",
          "name": "to",
          "type": "address"
        },
        {
          "internalType": "uint256",
          "name": "tokenId",
          "type": "uint256"
        }
      ],
      "name": "transferFrom",
      "outputs": [],
      "stateMutability": "nonpayable",
      "type": "function"
    },
    {
      "inputs": [
        {
          "internalType": "address",
          "name": "newOwner",
          "type": "address"
        }
      ],
      "name": "transferOwnership",
      "outputs": [],
      "stateMutability": "nonpayable",
      "type": "function"
    },
    {
      "inputs": [
        {
          "internalType": "address",
          "name": "",
          "type": "address"
        },
        {
          "internalType": "uint256",
          "name": "",
          "type": "uint256"
        }
      ],
      "name": "userPokemon",
      "outputs": [
        {
          "internalType": "uint256",
          "name": "",
          "type": "uint256"
        }
      ],
      "stateMutability": "view",
      "type": "function"
    },
    {
      "inputs": [
        {
          "internalType": "uint256",
          "name": "tokenId",
          "type": "uint256"
        }
      ],
      "name": "wakeUpPokemon",
      "outputs": [],
      "stateMutability": "nonpayable",
      "type": "function"
    }
  ],
  "bytecode": "0x60406080815234620004e15762000015620004e6565b90600782526020662837b5b2b6b7b760c91b8184015262000035620004e6565b6004808252632825a6a760e11b838301528451919491926001600160401b0392838511620004cc576000938454956001928388811c98168015620004c1575b85891014620004ae578190601f988981116200045b575b508590898311600114620003f7578892620003eb575b5050600019600383901b1c191690831b1785555b8751908111620003d85781548281811c91168015620003cd575b84821014620003ba5786811162000376575b5086978597969750839782116001146200030d5760869786918362000301575b5050600019600383901b1c191690821b1781555b60068054336001600160a01b0319821681179092556001600160a01b03167f8be0079c531659141344cd1fd0a4f28419497f9722a3daafe3b4186f6b6457e08680a362000161620004e6565b6002815282810190600a825282865282600b9283865288882092518355519101556200018c620004e6565b600381528284820160148152600288528386528888209251835551910155620001b4620004e6565b6005815282848201600a81528688528386528888209251835551910155620001db620004e6565b60068152828482016014815260058852838652888820925183555191015562000203620004e6565b6008815282848201600a8152600788528386528888209251835551910155816200022c620004e6565b9160098352848301906014825260088852855287872092518355519101558352600d808252601085852055600e92838352600286862055600285528183528286862055838352600386862055845280825260108585205582825260058585205560058452808252602485852055828252600685852055600784528082526010858520558282526008858520556008845280825260248585205582825260098585205560198452808252602485852055828252601a85852055608584528152601984842055522055516124fb90816200051d8239f35b01519050388062000101565b8286528386209790601f198316875b8181106200035d57509160869991848695941062000343575b505050811b01815562000115565b015160001960f88460031b161c1916905538808062000335565b828401518b55998501998b99509286019286016200031c565b8286528386208780840160051c820192868510620003b0575b0160051c01905b818110620003a55750620000e1565b868155830162000396565b925081926200038f565b634e487b7160e01b865260228552602486fd5b90607f1690620000cf565b634e487b7160e01b855260418452602485fd5b015190503880620000a1565b8880528689208694509190601f1984168a5b898282106200044457505084116200042a575b505050811b018555620000b5565b015160001960f88460031b161c191690553880806200041c565b838501518655899790950194938401930162000409565b9091508780528588208980850160051c820192888610620004a4575b918791869594930160051c01915b828110620004955750506200008b565b8a815585945087910162000485565b9250819262000477565b634e487b7160e01b875260228652602487fd5b97607f169762000074565b604183634e487b7160e01b6000525260246000fd5b600080fd5b60408051919082016001600160401b038111838210176200050657604052565b634e487b7160e01b600052604160045260246000fdfe608080604052600436101561001357600080fd5b60003560e01c90816301ffc9a714611af75750806306fdde0314611a38578063081812fc14611a1a578063095ea7b3146118a0578063119cdc52146118845780631445be841461184f5780631c7bd8121461183357806323b7a29d1461180757806323b872dd146117de5780632f7467b3146117aa5780633344a1e314611588578063368004ed146112925780633ee2156a1461127657806342842e0e1461124e5780635b1c57c5146112225780635d240c58146110255780636352211e14610ff557806370a0823114610f5e578063715018a614610f0157806379a7f54914610ea9578063860693c014610ded5780638855617a14610dae5780638a6cce3b14610cfa5780638da5cb5b14610cd157806395d89b4114610bc6578063a22cb46514610aeb578063b88d4fde14610a60578063c1b2c1ae146109c0578063c87b56dd1461094f578063e0ec5188146107dd578063e47248dc14610540578063e7ecb45314610524578063e985e9c5146104ce578063f0b305db1461034f578063f2fde38b1461028b578063f8f861371461026f5763fdc69f59146101b657600080fd5b3461026a5760208060031936011261026a576001600160a01b036101d8611ba2565b1660005260098152604060002060405190818382549182815201908192600052846000209060005b8682821061025657868661021682880383611c6a565b604051928392818401908285525180915260408401929160005b82811061023f57505050500390f35b835185528695509381019392810192600101610230565b835485529093019260019283019201610200565b600080fd5b3461026a57600036600319011261026a576020604051600a8152f35b3461026a57602036600319011261026a576102a4611ba2565b6102ac611ca8565b6001600160a01b039081169081156102fb57600654826001600160601b0360a01b821617600655167f8be0079c531659141344cd1fd0a4f28419497f9722a3daafe3b4186f6b6457e0600080a3005b60405162461bcd60e51b815260206004820152602660248201527f4f776e61626c653a206e6577206f776e657220697320746865207a65726f206160448201526564647265737360d01b6064820152608490fd5b3461026a57602036600319011261026a57610160600435600060405161037481611c31565b8181528160208201528160408201528160608201528160808201528160a08201528160c08201528160e082015261010082818301526101209383858401526101409384809401526103e26103dd82600052600260205260018060a01b0360406000205416151590565b6123aa565b6000526008602052604060002093604051916103fd83611c31565b600a86549687855260018101546020860152600281015460408601526003810154606086015260048101546080860152600581015460a0860152600681015460c0860152600781015460e086015260088101548386015260ff6009820154161515848601520154848401526040519586526020830151602087015260408301516040870152606083015160608701526080830151608087015260a083015160a087015260c083015160c087015260e083015160e0870152808301519086015280820151151590850152015190820152f35b3461026a57604036600319011261026a576104e7611ba2565b6104ef611bb8565b9060018060a01b03809116600052600560205260406000209116600052602052602060ff604060002054166040519015158152f35b3461026a57600036600319011261026a57602060405160648152f35b3461026a5760208060031936011261026a576004356001811480156107d3575b80156107c9575b80156107bf575b1561077a5733600052600c825260ff604060002054166107355733600052600982526040600020546106fa5760016007540190816007556040516105b181611c31565b818152600a6000610666818487898083016001815260408401858152606085016064815260808601916064835260a08701938b8552600860c08901968d885260e08a01988e8a526101406101008c019b60648d5261012081019d8e52019d8e526000525260406000209c518d555160018d01555160028c01555160038b01555160048a0155516005890155516006880155516007870155516008860155511515600985019060ff801983541691151516179055565b51910155610674823361229d565b336000526009835261068a826040600020612227565b81600052600a83526040600020336001600160601b0360a01b82541617905533600052600c83526040600020600160ff1982541617905560405190828252838201527fd69f7156d23a1d9b23e1cbdea811a6be9376a306fc27a7a5663656f2756e55b560403392a2604051908152f35b60405162461bcd60e51b815260048101839052601360248201527220b63932b0b23c903430b9902837b5b2b6b7b760691b6044820152606490fd5b60405162461bcd60e51b815260048101839052601d60248201527f416c7265616479206861732061207374617274657220506f6b656d6f6e0000006044820152606490fd5b60405162461bcd60e51b815260048101839052601760248201527f496e76616c6964207374617274657220506f6b656d6f6e0000000000000000006044820152606490fd5b506019811461056e565b5060078114610567565b5060048114610560565b3461026a57602036600319011261026a57600435600081815260026020526040902054610814906001600160a01b031615156123aa565b61081d81611d4c565b6001600160a01b03919061083490831633146123fe565b33600052600960205260406000209160005b835480821015610943578361085b8387611c03565b919054600392831b1c14610879575050610874906123ef565b610846565b91946000198201929091831161092d576108dc956108ad6108c6926108a16108cb9686611c03565b9054911b1c9184611c03565b90919082549060031b91821b91600019901b1916179055565b61244a565b6108d53392611d4c565b1614611f1b565b60405162461bcd60e51b8152602060048201526024808201527f4552433732313a207472616e7366657220746f20746865207a65726f206164646044820152637265737360e01b6064820152608490fd5b634e487b7160e01b600052601160045260246000fd5b50506108dc92506108cb565b3461026a57602036600319011261026a57600435600090815260026020526040902054610986906001600160a01b03161515611d00565b600060405161099481611c4e565b526109bc6040516109a481611c4e565b60008152604051918291602083526020830190611b62565b0390f35b3461026a57602036600319011261026a57600435600052600860205261016060406000208054906001810154906002810154600382015460048301546005840154600685015491600786015493600887015495600a60ff60098a015416980154986040519a8b5260208b015260408a01526060890152608088015260a087015260c086015260e08501526101008401521515610120830152610140820152f35b3461026a57608036600319011261026a57610a79611ba2565b610a81611bb8565b6064359167ffffffffffffffff831161026a573660238401121561026a57826004013591610aae83611c8c565b92610abc6040519485611c6a565b808452366024828701011161026a576020816000926024610ae99801838801378501015260443591611e12565b005b3461026a57604036600319011261026a57610b04611ba2565b602435908115159081830361026a576001600160a01b031691338314610b8157610b539033600052600560205260406000208460005260205260406000209060ff801983541691151516179055565b6040519081527f17307eab39ab6107e8899845ad3d59bd9653f200f220920489ca2b5937696c3160203392a3005b60405162461bcd60e51b815260206004820152601960248201527f4552433732313a20617070726f766520746f2063616c6c6572000000000000006044820152606490fd5b3461026a57600036600319011261026a57604051600060019081549182811c91818416918215610cc7575b6020948585108414610cb1578587948686529182600014610c91575050600114610c37575b50610c2392500383611c6a565b6109bc604051928284938452830190611b62565b6000818152859250907fb10e2d527612073b26eecdfd717e6a320cf44b4afac2b0732d9fcbe2b7fa0cf65b858310610c79575050610c23935082010185610c16565b80548389018501528794508693909201918101610c62565b60ff191685820152610c2395151560051b8501019250879150610c169050565b634e487b7160e01b600052602260045260246000fd5b92607f1692610bf1565b3461026a57600036600319011261026a576006546040516001600160a01b039091168152602090f35b3461026a57602036600319011261026a57600435600081815260026020526040902054610d31906001600160a01b031615156123aa565b610d4d610d3d82611d4c565b6001600160a01b031633146123fe565b60005260086020526009604060002001805460ff811615610d705760ff19169055005b60405162461bcd60e51b8152602060048201526016602482015275506f6b656d6f6e206973206e6f742072657374696e6760501b6044820152606490fd5b3461026a57602036600319011261026a576001600160a01b03610dcf611ba2565b16600052600c602052602060ff604060002054166040519015158152f35b3461026a57602036600319011261026a57600435600081815260026020526040902054610e24906001600160a01b031615156123aa565b610e30610d3d82611d4c565b6000526008602052604060002060098101805460ff8116610e645760ff191660011790556064600882015542600a90910155005b60405162461bcd60e51b815260206004820152601a60248201527f506f6b656d6f6e20697320616c72656164792072657374696e670000000000006044820152606490fd5b3461026a57604036600319011261026a57610ec2611ba2565b6001600160a01b031660009081526009602052604090208054602435919082101561026a57602091610ef391611c03565b90546040519160031b1c8152f35b3461026a57600036600319011261026a57610f1a611ca8565b600680546001600160a01b031981169091556000906001600160a01b03167f8be0079c531659141344cd1fd0a4f28419497f9722a3daafe3b4186f6b6457e08280a3005b3461026a57602036600319011261026a576001600160a01b03610f7f611ba2565b168015610f9e5760005260036020526020604060002054604051908152f35b60405162461bcd60e51b815260206004820152602960248201527f4552433732313a2061646472657373207a65726f206973206e6f7420612076616044820152683634b21037bbb732b960b91b6064820152608490fd5b3461026a57602036600319011261026a576020611013600435611d4c565b6040516001600160a01b039091168152f35b3461026a57604036600319011261026a5761103e611ca8565b600435600090815260026020526040902054611064906001600160a01b031615156123aa565b600435600052600860205260406000206002810154602435810180911161092d5760028201556001810154606481028181046064148215171561092d57905b60028301549180831061121a57828181031161092d576110c8920360028401556123ef565b80606482028281046064148315171561092d57916004840154600a810180911161092d57806004860155600385015560058401546002810180911161092d57600585015560068401546002810180911161092d576006850155600784015460028101811161092d5760020160078501556040518181527fd799fe2c0d557e13a5f27e1feaf0ee126b454c74f55af123feae29aa65dd5bdd602060043592a28354600052600b60205260406000209060405180604081011067ffffffffffffffff604083011117611204578060406020920160405260018454948583520154918291015282151591826111f9575b50506111c2575b506110a3565b8084556040519081527fb2672298e1fba574488020f2ce2de1babb9bd60cc84dfc9f329c9a57aeffb00e602060043592a2836111bc565b1015905085806111b5565b634e487b7160e01b600052604160045260246000fd5b506001830155005b3461026a57602036600319011261026a57600435600052600e6020526020604060002054604051908152f35b3461026a57610ae961125f36611bce565b906040519261126d84611c4e565b60008452611e12565b3461026a57600036600319011261026a57602060405160328152f35b3461026a5760208060031936011261026a57600435906112b182611d4c565b336001600160a01b039091160361154457816000526008815260406000209060ff60098301541661150b5760088201805490600a82106114d157600919820191821161092d5755600282018054926032840180941161092d5760019084835501928354600019810190811161092d576113299061248a565b908160640291606483040361092d571015611372575b54915460408051938452918301527fa675b7889f0f77ee3cdc136c97d64b928265d252c7098bab774349a223db30a891a2005b918360005260088252604060002091600183019361139085546123ef565b93848655600481018054906005820180921161092d578190556003820155600581018054906005820180921161092d5755600681018054906005820180921161092d5755600781018054906005820180921161092d577fa675b7889f0f77ee3cdc136c97d64b928265d252c7098bab774349a223db30a8976040978a947fd799fe2c0d557e13a5f27e1feaf0ee126b454c74f55af123feae29aa65dd5bdd948894556064600882015554600052600d8352886000205480151591826114c6575b5050611468575b548751908152a2919350915061133f565b836000526008825283886000208054600052600e8452838a6000205480611493575b50505050611457565b807fb2672298e1fba574488020f2ce2de1babb9bd60cc84dfc9f329c9a57aeffb00e93558b51908152a2838b838161148a565b101590508b80611450565b60405162461bcd60e51b81526004810184905260126024820152714e6f7420656e6f756768207374616d696e6160701b6044820152606490fd5b6064906040519062461bcd60e51b825260048201526012602482015271506f6b656d6f6e2069732072657374696e6760701b6044820152fd5b6064906040519062461bcd60e51b82526004820152601a60248201527f596f7520646f6e2774206f776e207468697320506f6b656d6f6e0000000000006044820152fd5b3461026a57604036600319011261026a576115a1611ba2565b602435906115ad611ca8565b8115158061179f575b156117655760018060a01b0381168060005260209260098452600360406000205410156117205760407fd69f7156d23a1d9b23e1cbdea811a6be9376a306fc27a7a5663656f2756e55b5916116da60016007540180968160075581600a60006116d1818d8a5195869161162883611c31565b8b8352808301600181528d8401858152606085016064815260808601916064835260a08701938b8552600860c08901968d885260e08a01988e8a526101406101008c019b60648d5261012081019d8e52019d8e526000525260406000209c518d555160018d01555160028c01555160038b01555160048a0155516005890155516006880155516007870155516008860155511515600985019060ff801983541691151516179055565b5191015561229d565b83600052600986526116ef8583600020612227565b84600052600a865281600020846001600160601b0360a01b82541617905581519085825286820152a2604051908152f35b60405162461bcd60e51b815260048101859052601a60248201527f4d6178696d756d203320506f6b656d6f6e2070657220757365720000000000006044820152606490fd5b60405162461bcd60e51b8152602060048201526012602482015271125b9d985b1a5908141bdad95b5bdb88125160721b6044820152606490fd5b5060968211156115b6565b3461026a57602036600319011261026a57600435600052600a602052602060018060a01b0360406000205416604051908152f35b3461026a57610ae96117ef36611bce565b916118026117fd8433611ead565b611db0565b611f75565b3461026a57602036600319011261026a57600435600052600d6020526020604060002054604051908152f35b3461026a57600036600319011261026a57602060405160028152f35b3461026a57602036600319011261026a57600435600052600b6020526040806000206001815491015482519182526020820152f35b3461026a57600036600319011261026a57602060405160058152f35b3461026a57604036600319011261026a576118b9611ba2565b602435906001600160a01b0380806118d085611d4c565b169216918083146119cb578033149081156119a6575b501561193b57600083815260046020526040902080546001600160a01b0319168317905561191383611d4c565b167f8c5be1e5ebec7d5bd14f71427d1e84f3dd0314c0f7b2291e5b200ac8c7c3b925600080a4005b60405162461bcd60e51b815260206004820152603d60248201527f4552433732313a20617070726f76652063616c6c6572206973206e6f7420746f60448201527f6b656e206f776e6572206f7220617070726f76656420666f7220616c6c0000006064820152608490fd5b9050600052600560205260406000203360005260205260ff60406000205416846118e6565b60405162461bcd60e51b815260206004820152602160248201527f4552433732313a20617070726f76616c20746f2063757272656e74206f776e656044820152603960f91b6064820152608490fd5b3461026a57602036600319011261026a576020611013600435611d72565b3461026a57600036600319011261026a576040516000805490600182811c91818416918215611aed575b6020948585108414610cb1578587948686529182600014610c91575050600114611a935750610c2392500383611c6a565b6000808052859250907f290decd9548b62a8d60345a988386fc84ba6bc95484008f6362f93160ef3e5635b858310611ad5575050610c23935082010185610c16565b80548389018501528794508693909201918101611abe565b92607f1692611a62565b3461026a57602036600319011261026a576004359063ffffffff60e01b821680920361026a576020916380ac58cd60e01b8114908115611b51575b8115611b40575b5015158152f35b6301ffc9a760e01b14905083611b39565b635b5e139f60e01b81149150611b32565b919082519283825260005b848110611b8e575050826000602080949584010152601f8019910116010190565b602081830181015184830182015201611b6d565b600435906001600160a01b038216820361026a57565b602435906001600160a01b038216820361026a57565b606090600319011261026a576001600160a01b0390600435828116810361026a5791602435908116810361026a579060443590565b8054821015611c1b5760005260206000200190600090565b634e487b7160e01b600052603260045260246000fd5b610160810190811067ffffffffffffffff82111761120457604052565b6020810190811067ffffffffffffffff82111761120457604052565b90601f8019910116810190811067ffffffffffffffff82111761120457604052565b67ffffffffffffffff811161120457601f01601f191660200190565b6006546001600160a01b03163303611cbc57565b606460405162461bcd60e51b815260206004820152602060248201527f4f776e61626c653a2063616c6c6572206973206e6f7420746865206f776e65726044820152fd5b15611d0757565b60405162461bcd60e51b815260206004820152601860248201527f4552433732313a20696e76616c696420746f6b656e20494400000000000000006044820152606490fd5b6000908152600260205260409020546001600160a01b0316611d6f811515611d00565b90565b600081815260026020526040902054611d95906001600160a01b03161515611d00565b6000908152600460205260409020546001600160a01b031690565b15611db757565b60405162461bcd60e51b815260206004820152602d60248201527f4552433732313a2063616c6c6572206973206e6f7420746f6b656e206f776e6560448201526c1c881bdc88185c1c1c9bdd9959609a1b6064820152608490fd5b90611e36939291611e266117fd8433611ead565b611e31838383611f75565b612102565b15611e3d57565b60405162461bcd60e51b815280611e5660048201611e5a565b0390fd5b60809060208152603260208201527f4552433732313a207472616e7366657220746f206e6f6e20455243373231526560408201527131b2b4bb32b91034b6b83632b6b2b73a32b960711b60608201520190565b906001600160a01b038080611ec184611d4c565b16931691838314938415611ef4575b508315611ede575b50505090565b611eea91929350611d72565b1614388080611ed8565b909350600052600560205260406000208260005260205260ff604060002054169238611ed0565b15611f2257565b60405162461bcd60e51b815260206004820152602560248201527f4552433732313a207472616e736665722066726f6d20696e636f72726563742060448201526437bbb732b960d91b6064820152608490fd5b90611f9d91611f8384611d4c565b6001600160a01b0393918416928492909183168414611f1b565b169182156108dc5781612048575b6000805160206124a6833981519152906000908482526009602052846040611fd588828620612227565b878452600a60205261200286828620946001600160601b0360a01b9585878254161790556108d58b611d4c565b87845260046020528084208381541690558584526003602052808420600019815401905581845280842060018154019055878452600260205283209182541617905580a4565b929190600093818552600960205260408520855b8154808210156120e65786906120728385611c03565b929054600393841b1c1461209057505061208b906123ef565b61205c565b909192939495969760001982019182116120d257506120cb926108ad85936108a16108c6946000805160206124a68339815191529998611c03565b9050611fab565b634e487b7160e01b81526011600452602490fd5b5050506000805160206124a683398151915291929394506120cb565b9293600093909291803b1561221c5794849161215c9660405180948193630a85bd0160e11b9788845233600485015260018060a01b0380921660248501526044840152608060648401528260209b8c976084830190611b62565b0393165af18491816121d8575b506121c7575050503d6000146121bf573d61218381611c8c565b906121916040519283611c6a565b81528091833d92013e5b805191826121bc5760405162461bcd60e51b815280611e5660048201611e5a565b01fd5b50606061219b565b6001600160e01b0319161492509050565b9091508581813d8311612215575b6121f08183611c6a565b8101031261221157516001600160e01b031981168103612211579038612169565b8480fd5b503d6121e6565b505050915050600190565b908154916801000000000000000083101561120457826108ad91600161224f95018155611c03565b565b1561225857565b60405162461bcd60e51b815260206004820152601c60248201527f4552433732313a20746f6b656e20616c7265616479206d696e746564000000006044820152606490fd5b6001600160a01b03168015612366576000828152600260205260409020546122d1906001600160a01b031615155b15612251565b600081815260096020526122e88360408320612227565b828152600a6020908152604080832080546001600160a01b031990811686179091556000868152600290935291205461232b906001600160a01b031615156122cb565b8282526003602052604082206001815401905583825260026020528260408320918254161790556000805160206124a68339815191528180a4565b606460405162461bcd60e51b815260206004820152602060248201527f4552433732313a206d696e7420746f20746865207a65726f20616464726573736044820152fd5b156123b157565b60405162461bcd60e51b8152602060048201526016602482015275141bdad95b5bdb88191bd95cc81b9bdd08195e1a5cdd60521b6044820152606490fd5b600019811461092d5760010190565b1561240557565b60405162461bcd60e51b815260206004820152601d60248201527f4e6f7420746865206f776e6572206f66207468697320506f6b656d6f6e0000006044820152606490fd5b805490811561247457600019918201916124648383611c03565b909182549160031b1b1916905555565b634e487b7160e01b600052603160045260246000fd5b801561249f5760ff811161092d576001901b90565b5060019056feddf252ad1be2c89b69c2b068fc378daa952ba7f163c4a11628f55a4df523b3efa264697066735822122059797b1737c9e2f442fbacdcee560424a1149584282c98e7af8cfd57b872c8cb64736f6c63430008130033",
  "linkReferences": {},
  "deployedLinkReferences": {}
}